{
  "contractName": "SlothRoyaltyClub",
  "abi": [
    {
      "inputs": [
        {
          "internalType": "address",
          "name": "_proxyRegistryAddress",
          "type": "address"
        }
      ],
      "stateMutability": "nonpayable",
      "type": "constructor"
    },
    {
      "anonymous": false,
      "inputs": [
        {
          "indexed": true,
          "internalType": "address",
          "name": "owner",
          "type": "address"
        },
        {
          "indexed": true,
          "internalType": "address",
          "name": "approved",
          "type": "address"
        },
        {
          "indexed": true,
          "internalType": "uint256",
          "name": "tokenId",
          "type": "uint256"
        }
      ],
      "name": "Approval",
      "type": "event"
    },
    {
      "anonymous": false,
      "inputs": [
        {
          "indexed": true,
          "internalType": "address",
          "name": "owner",
          "type": "address"
        },
        {
          "indexed": true,
          "internalType": "address",
          "name": "operator",
          "type": "address"
        },
        {
          "indexed": false,
          "internalType": "bool",
          "name": "approved",
          "type": "bool"
        }
      ],
      "name": "ApprovalForAll",
      "type": "event"
    },
    {
      "anonymous": false,
      "inputs": [
        {
          "indexed": false,
          "internalType": "address",
          "name": "userAddress",
          "type": "address"
        },
        {
          "indexed": false,
          "internalType": "address payable",
          "name": "relayerAddress",
          "type": "address"
        },
        {
          "indexed": false,
          "internalType": "bytes",
          "name": "functionSignature",
          "type": "bytes"
        }
      ],
      "name": "MetaTransactionExecuted",
      "type": "event"
    },
    {
      "anonymous": false,
      "inputs": [
        {
          "indexed": true,
          "internalType": "address",
          "name": "previousOwner",
          "type": "address"
        },
        {
          "indexed": true,
          "internalType": "address",
          "name": "newOwner",
          "type": "address"
        }
      ],
      "name": "OwnershipTransferred",
      "type": "event"
    },
    {
      "anonymous": false,
      "inputs": [
        {
          "indexed": true,
          "internalType": "address",
          "name": "from",
          "type": "address"
        },
        {
          "indexed": true,
          "internalType": "address",
          "name": "to",
          "type": "address"
        },
        {
          "indexed": true,
          "internalType": "uint256",
          "name": "tokenId",
          "type": "uint256"
        }
      ],
      "name": "Transfer",
      "type": "event"
    },
    {
      "inputs": [],
      "name": "ERC712_VERSION",
      "outputs": [
        {
          "internalType": "string",
          "name": "",
          "type": "string"
        }
      ],
      "stateMutability": "view",
      "type": "function",
      "constant": true
    },
    {
      "inputs": [
        {
          "internalType": "address",
          "name": "to",
          "type": "address"
        },
        {
          "internalType": "uint256",
          "name": "tokenId",
          "type": "uint256"
        }
      ],
      "name": "approve",
      "outputs": [],
      "stateMutability": "nonpayable",
      "type": "function"
    },
    {
      "inputs": [
        {
          "internalType": "address",
          "name": "owner",
          "type": "address"
        }
      ],
      "name": "balanceOf",
      "outputs": [
        {
          "internalType": "uint256",
          "name": "",
          "type": "uint256"
        }
      ],
      "stateMutability": "view",
      "type": "function",
      "constant": true
    },
    {
      "inputs": [
        {
          "internalType": "address",
          "name": "userAddress",
          "type": "address"
        },
        {
          "internalType": "bytes",
          "name": "functionSignature",
          "type": "bytes"
        },
        {
          "internalType": "bytes32",
          "name": "sigR",
          "type": "bytes32"
        },
        {
          "internalType": "bytes32",
          "name": "sigS",
          "type": "bytes32"
        },
        {
          "internalType": "uint8",
          "name": "sigV",
          "type": "uint8"
        }
      ],
      "name": "executeMetaTransaction",
      "outputs": [
        {
          "internalType": "bytes",
          "name": "",
          "type": "bytes"
        }
      ],
      "stateMutability": "payable",
      "type": "function",
      "payable": true
    },
    {
      "inputs": [
        {
          "internalType": "uint256",
          "name": "tokenId",
          "type": "uint256"
        }
      ],
      "name": "getApproved",
      "outputs": [
        {
          "internalType": "address",
          "name": "",
          "type": "address"
        }
      ],
      "stateMutability": "view",
      "type": "function",
      "constant": true
    },
    {
      "inputs": [],
      "name": "getChainId",
      "outputs": [
        {
          "internalType": "uint256",
          "name": "",
          "type": "uint256"
        }
      ],
      "stateMutability": "view",
      "type": "function",
      "constant": true
    },
    {
      "inputs": [],
      "name": "getDomainSeperator",
      "outputs": [
        {
          "internalType": "bytes32",
          "name": "",
          "type": "bytes32"
        }
      ],
      "stateMutability": "view",
      "type": "function",
      "constant": true
    },
    {
      "inputs": [
        {
          "internalType": "address",
          "name": "user",
          "type": "address"
        }
      ],
      "name": "getNonce",
      "outputs": [
        {
          "internalType": "uint256",
          "name": "nonce",
          "type": "uint256"
        }
      ],
      "stateMutability": "view",
      "type": "function",
      "constant": true
    },
    {
      "inputs": [
        {
          "internalType": "address",
          "name": "owner",
          "type": "address"
        },
        {
          "internalType": "address",
          "name": "operator",
          "type": "address"
        }
      ],
      "name": "isApprovedForAll",
      "outputs": [
        {
          "internalType": "bool",
          "name": "",
          "type": "bool"
        }
      ],
      "stateMutability": "view",
      "type": "function",
      "constant": true
    },
    {
      "inputs": [
        {
          "internalType": "address",
          "name": "_to",
          "type": "address"
        }
      ],
      "name": "mintTo",
      "outputs": [],
      "stateMutability": "nonpayable",
      "type": "function"
    },
    {
      "inputs": [
        {
          "internalType": "address",
          "name": "_to",
          "type": "address"
        },
        {
          "internalType": "uint256",
          "name": "_tokenCount",
          "type": "uint256"
        }
      ],
      "name": "mintToCount",
      "outputs": [],
      "stateMutability": "nonpayable",
      "type": "function"
    },
    {
      "inputs": [],
      "name": "name",
      "outputs": [
        {
          "internalType": "string",
          "name": "",
          "type": "string"
        }
      ],
      "stateMutability": "view",
      "type": "function",
      "constant": true
    },
    {
      "inputs": [],
      "name": "owner",
      "outputs": [
        {
          "internalType": "address",
          "name": "",
          "type": "address"
        }
      ],
      "stateMutability": "view",
      "type": "function",
      "constant": true
    },
    {
      "inputs": [
        {
          "internalType": "uint256",
          "name": "tokenId",
          "type": "uint256"
        }
      ],
      "name": "ownerOf",
      "outputs": [
        {
          "internalType": "address",
          "name": "",
          "type": "address"
        }
      ],
      "stateMutability": "view",
      "type": "function",
      "constant": true
    },
    {
      "inputs": [],
      "name": "renounceOwnership",
      "outputs": [],
      "stateMutability": "nonpayable",
      "type": "function"
    },
    {
      "inputs": [
        {
          "internalType": "address",
          "name": "from",
          "type": "address"
        },
        {
          "internalType": "address",
          "name": "to",
          "type": "address"
        },
        {
          "internalType": "uint256",
          "name": "tokenId",
          "type": "uint256"
        }
      ],
      "name": "safeTransferFrom",
      "outputs": [],
      "stateMutability": "nonpayable",
      "type": "function"
    },
    {
      "inputs": [
        {
          "internalType": "address",
          "name": "from",
          "type": "address"
        },
        {
          "internalType": "address",
          "name": "to",
          "type": "address"
        },
        {
          "internalType": "uint256",
          "name": "tokenId",
          "type": "uint256"
        },
        {
          "internalType": "bytes",
          "name": "_data",
          "type": "bytes"
        }
      ],
      "name": "safeTransferFrom",
      "outputs": [],
      "stateMutability": "nonpayable",
      "type": "function"
    },
    {
      "inputs": [
        {
          "internalType": "address",
          "name": "operator",
          "type": "address"
        },
        {
          "internalType": "bool",
          "name": "approved",
          "type": "bool"
        }
      ],
      "name": "setApprovalForAll",
      "outputs": [],
      "stateMutability": "nonpayable",
      "type": "function"
    },
    {
      "inputs": [
        {
          "internalType": "bytes4",
          "name": "interfaceId",
          "type": "bytes4"
        }
      ],
      "name": "supportsInterface",
      "outputs": [
        {
          "internalType": "bool",
          "name": "",
          "type": "bool"
        }
      ],
      "stateMutability": "view",
      "type": "function",
      "constant": true
    },
    {
      "inputs": [],
      "name": "symbol",
      "outputs": [
        {
          "internalType": "string",
          "name": "",
          "type": "string"
        }
      ],
      "stateMutability": "view",
      "type": "function",
      "constant": true
    },
    {
      "inputs": [
        {
          "internalType": "uint256",
          "name": "_tokenId",
          "type": "uint256"
        }
      ],
      "name": "tokenURI",
      "outputs": [
        {
          "internalType": "string",
          "name": "",
          "type": "string"
        }
      ],
      "stateMutability": "pure",
      "type": "function",
      "constant": true
    },
    {
      "inputs": [],
      "name": "totalSupply",
      "outputs": [
        {
          "internalType": "uint256",
          "name": "",
          "type": "uint256"
        }
      ],
      "stateMutability": "view",
      "type": "function",
      "constant": true
    },
    {
      "inputs": [
        {
          "internalType": "address",
          "name": "from",
          "type": "address"
        },
        {
          "internalType": "address",
          "name": "to",
          "type": "address"
        },
        {
          "internalType": "uint256",
          "name": "tokenId",
          "type": "uint256"
        }
      ],
      "name": "transferFrom",
      "outputs": [],
      "stateMutability": "nonpayable",
      "type": "function"
    },
    {
      "inputs": [
        {
          "internalType": "address",
          "name": "newOwner",
          "type": "address"
        }
      ],
      "name": "transferOwnership",
      "outputs": [],
      "stateMutability": "nonpayable",
      "type": "function"
    },
    {
      "inputs": [],
      "name": "baseTokenURI",
      "outputs": [
        {
          "internalType": "string",
          "name": "",
          "type": "string"
        }
      ],
      "stateMutability": "pure",
      "type": "function",
      "constant": true
    }
  ],
  "bytecode": "0x60806040526006805460ff191690553480156200001b57600080fd5b506040516200230b3803806200230b8339810160408190526200003e916200039b565b6040518060400160405280601081526020016f29b637ba342937bcb0b63a3ca1b63ab160811b8152506040518060400160405280600381526020016253524360e81b81525082828281600090805190602001906200009e929190620002f5565b508051620000b4906001906020840190620002f5565b505050620000d1620000cb6200011960201b60201c565b62000135565b600b80546001600160a01b0319166001600160a01b03831617905562000104600a62000187602090811b62000daa17901c565b6200010f8362000190565b505050506200040a565b600062000130620001f460201b62000db31760201c565b905090565b600980546001600160a01b038381166001600160a01b0319831681179093556040519116919082907f8be0079c531659141344cd1fd0a4f28419497f9722a3daafe3b4186f6b6457e090600090a35050565b80546001019055565b60065460ff1615620001d95760405162461bcd60e51b815260206004820152600e60248201526d185b1c9958591e481a5b9a5d195960921b604482015260640160405180910390fd5b620001e48162000253565b506006805460ff19166001179055565b6000333014156200024d57600080368080601f0160208091040260200160405190810160405280939291908181526020018383808284376000920191909152505050503601516001600160a01b03169150620002509050565b50335b90565b6040518060800160405280604f8152602001620022bc604f9139805160209182012082519282019290922060408051808201825260018152603160f81b90840152805180840194909452838101919091527fc89efdaa54c0f20c7adf612882df0950f5a951637e0307cdcb4c672f298b8bc660608401523060808401524660a0808501919091528151808503909101815260c090930190528151910120600755565b8280546200030390620003cd565b90600052602060002090601f01602090048101928262000327576000855562000372565b82601f106200034257805160ff191683800117855562000372565b8280016001018555821562000372579182015b828111156200037257825182559160200191906001019062000355565b506200038092915062000384565b5090565b5b8082111562000380576000815560010162000385565b600060208284031215620003ae57600080fd5b81516001600160a01b0381168114620003c657600080fd5b9392505050565b600181811c90821680620003e257607f821691505b602082108114156200040457634e487b7160e01b600052602260045260246000fd5b50919050565b611ea2806200041a6000396000f3fe6080604052600436106101265760003560e01c806301ffc9a71461012b57806306fdde0314610160578063081812fc14610182578063095ea7b3146101af5780630c53c51c146101d15780630f7e5970146101e457806318160ddd1461021157806320379ee51461023457806323b872dd146102495780632d0335ab146102695780633408e4701461029f57806342842e0e146102b25780636352211e146102d257806370a08231146102f2578063715018a614610312578063755edd17146103275780638da5cb5b1461034757806393285ddf1461035c57806395d89b411461037c578063a22cb46514610391578063b88d4fde146103b1578063c87b56dd146103d1578063d547cfb7146103f1578063e985e9c514610406578063f2fde38b14610426575b600080fd5b34801561013757600080fd5b5061014b61014636600461179e565b610446565b60405190151581526020015b60405180910390f35b34801561016c57600080fd5b50610175610498565b6040516101579190611813565b34801561018e57600080fd5b506101a261019d366004611826565b61052a565b604051610157919061183f565b3480156101bb57600080fd5b506101cf6101ca366004611868565b6105b7565b005b6101756101df366004611936565b6106da565b3480156101f057600080fd5b50610175604051806040016040528060018152602001603160f81b81525081565b34801561021d57600080fd5b506102266108c3565b604051908152602001610157565b34801561024057600080fd5b50600754610226565b34801561025557600080fd5b506101cf6102643660046119b3565b6108df565b34801561027557600080fd5b506102266102843660046119f4565b6001600160a01b031660009081526008602052604090205490565b3480156102ab57600080fd5b5046610226565b3480156102be57600080fd5b506101cf6102cd3660046119b3565b610917565b3480156102de57600080fd5b506101a26102ed366004611826565b610932565b3480156102fe57600080fd5b5061022661030d3660046119f4565b6109a9565b34801561031e57600080fd5b506101cf610a30565b34801561033357600080fd5b506101cf6103423660046119f4565b610a7b565b34801561035357600080fd5b506101a2610ae3565b34801561036857600080fd5b506101cf610377366004611868565b610af2565b34801561038857600080fd5b50610175610b81565b34801561039d57600080fd5b506101cf6103ac366004611a11565b610b90565b3480156103bd57600080fd5b506101cf6103cc366004611a4f565b610ba2565b3480156103dd57600080fd5b506101756103ec366004611826565b610bdb565b3480156103fd57600080fd5b50610175610c15565b34801561041257600080fd5b5061014b610421366004611aba565b610c35565b34801561043257600080fd5b506101cf6104413660046119f4565b610cfa565b60006001600160e01b031982166380ac58cd60e01b148061047757506001600160e01b03198216635b5e139f60e01b145b8061049257506301ffc9a760e01b6001600160e01b03198316145b92915050565b6060600080546104a790611ae8565b80601f01602080910402602001604051908101604052809291908181526020018280546104d390611ae8565b80156105205780601f106104f557610100808354040283529160200191610520565b820191906000526020600020905b81548152906001019060200180831161050357829003601f168201915b5050505050905090565b600061053582610e10565b61059b5760405162461bcd60e51b815260206004820152602c60248201527f4552433732313a20617070726f76656420717565727920666f72206e6f6e657860448201526b34b9ba32b73a103a37b5b2b760a11b60648201526084015b60405180910390fd5b506000908152600460205260409020546001600160a01b031690565b60006105c282610932565b9050806001600160a01b0316836001600160a01b031614156106305760405162461bcd60e51b815260206004820152602160248201527f4552433732313a20617070726f76616c20746f2063757272656e74206f776e656044820152603960f91b6064820152608401610592565b806001600160a01b0316610642610e2d565b6001600160a01b0316148061065e575061065e81610421610e2d565b6106cb5760405162461bcd60e51b815260206004820152603860248201527f4552433732313a20617070726f76652063616c6c6572206973206e6f74206f776044820152771b995c881b9bdc88185c1c1c9bdd995908199bdc88185b1b60421b6064820152608401610592565b6106d58383610e37565b505050565b60408051606081810183526001600160a01b038816600081815260086020908152908590205484528301529181018690526107188782878787610ea5565b61076e5760405162461bcd60e51b815260206004820152602160248201527f5369676e657220616e64207369676e617475726520646f206e6f74206d6174636044820152600d60fb1b6064820152608401610592565b6001600160a01b038716600090815260086020526040902054610792906001610f95565b6001600160a01b0388166000908152600860205260409081902091909155517f5845892132946850460bff5a0083f71031bc5bf9aadcd40f1de79423eac9b10b906107e290899033908a90611b23565b60405180910390a1600080306001600160a01b0316888a60405160200161080a929190611b58565b60408051601f198184030181529082905261082491611b8a565b6000604051808303816000865af19150503d8060008114610861576040519150601f19603f3d011682016040523d82523d6000602084013e610866565b606091505b5091509150816108b75760405162461bcd60e51b815260206004820152601c60248201527b119d5b98dd1a5bdb8818d85b1b081b9bdd081cdd58d8d95cdcd99d5b60221b6044820152606401610592565b98975050505050505050565b600060016108d0600a5490565b6108da9190611bbc565b905090565b6108f06108ea610e2d565b82610fa8565b61090c5760405162461bcd60e51b815260040161059290611bd3565b6106d583838361106a565b6106d583838360405180602001604052806000815250610ba2565b6000818152600260205260408120546001600160a01b0316806104925760405162461bcd60e51b815260206004820152602960248201527f4552433732313a206f776e657220717565727920666f72206e6f6e657869737460448201526832b73a103a37b5b2b760b91b6064820152608401610592565b60006001600160a01b038216610a145760405162461bcd60e51b815260206004820152602a60248201527f4552433732313a2062616c616e636520717565727920666f7220746865207a65604482015269726f206164647265737360b01b6064820152608401610592565b506001600160a01b031660009081526003602052604090205490565b610a38610e2d565b6001600160a01b0316610a49610ae3565b6001600160a01b031614610a6f5760405162461bcd60e51b815260040161059290611c24565b610a79600061120a565b565b610a83610e2d565b6001600160a01b0316610a94610ae3565b6001600160a01b031614610aba5760405162461bcd60e51b815260040161059290611c24565b6000610ac5600a5490565b9050610ad5600a80546001019055565b610adf828261125c565b5050565b6009546001600160a01b031690565b610afa610e2d565b6001600160a01b0316610b0b610ae3565b6001600160a01b031614610b315760405162461bcd60e51b815260040161059290611c24565b6000610b3c600a5490565b9050805b610b4a8383611c59565b811015610b7b57610b5f600a80546001019055565b610b69848261125c565b80610b7381611c71565b915050610b40565b50505050565b6060600180546104a790611ae8565b610adf610b9b610e2d565b8383611276565b610bb3610bad610e2d565b83610fa8565b610bcf5760405162461bcd60e51b815260040161059290611bd3565b610b7b84848484611341565b6060610be5610c15565b610bee83611374565b604051602001610bff929190611c8c565b6040516020818303038152906040529050919050565b6060604051806080016040528060518152602001611e1c60519139905090565b600b5460405163c455279160e01b81526000916001600160a01b039081169190841690829063c455279190610c6e90889060040161183f565b602060405180830381865afa158015610c8b573d6000803e3d6000fd5b505050506040513d601f19601f82011682018060405250810190610caf9190611cbb565b6001600160a01b03161415610cc8576001915050610492565b6001600160a01b0380851660009081526005602090815260408083209387168352929052205460ff165b949350505050565b610d02610e2d565b6001600160a01b0316610d13610ae3565b6001600160a01b031614610d395760405162461bcd60e51b815260040161059290611c24565b6001600160a01b038116610d9e5760405162461bcd60e51b815260206004820152602660248201527f4f776e61626c653a206e6577206f776e657220697320746865207a65726f206160448201526564647265737360d01b6064820152608401610592565b610da78161120a565b50565b80546001019055565b600033301415610e0a57600080368080601f0160208091040260200160405190810160405280939291908181526020018383808284376000920191909152505050503601516001600160a01b03169150610e0d9050565b50335b90565b6000908152600260205260409020546001600160a01b0316151590565b60006108da610db3565b600081815260046020526040902080546001600160a01b0319166001600160a01b0384169081179091558190610e6c82610932565b6001600160a01b03167f8c5be1e5ebec7d5bd14f71427d1e84f3dd0314c0f7b2291e5b200ac8c7c3b92560405160405180910390a45050565b60006001600160a01b038616610f0b5760405162461bcd60e51b815260206004820152602560248201527f4e61746976654d6574615472616e73616374696f6e3a20494e56414c49445f5360448201526424a3a722a960d91b6064820152608401610592565b6001610f1e610f1987611471565b6114ee565b6040805160008152602081018083529290925260ff851690820152606081018690526080810185905260a0016020604051602081039080840390855afa158015610f6c573d6000803e3d6000fd5b505050602060405103516001600160a01b0316866001600160a01b031614905095945050505050565b6000610fa18284611c59565b9392505050565b6000610fb382610e10565b6110145760405162461bcd60e51b815260206004820152602c60248201527f4552433732313a206f70657261746f7220717565727920666f72206e6f6e657860448201526b34b9ba32b73a103a37b5b2b760a11b6064820152608401610592565b600061101f83610932565b9050806001600160a01b0316846001600160a01b0316148061105a5750836001600160a01b031661104f8461052a565b6001600160a01b0316145b80610cf25750610cf28185610c35565b826001600160a01b031661107d82610932565b6001600160a01b0316146110e55760405162461bcd60e51b815260206004820152602960248201527f4552433732313a207472616e73666572206f6620746f6b656e2074686174206960448201526839903737ba1037bbb760b91b6064820152608401610592565b6001600160a01b0382166111475760405162461bcd60e51b8152602060048201526024808201527f4552433732313a207472616e7366657220746f20746865207a65726f206164646044820152637265737360e01b6064820152608401610592565b611152600082610e37565b6001600160a01b038316600090815260036020526040812080546001929061117b908490611bbc565b90915550506001600160a01b03821660009081526003602052604081208054600192906111a9908490611c59565b909155505060008181526002602052604080822080546001600160a01b0319166001600160a01b0386811691821790925591518493918716917fddf252ad1be2c89b69c2b068fc378daa952ba7f163c4a11628f55a4df523b3ef91a4505050565b600980546001600160a01b038381166001600160a01b0319831681179093556040519116919082907f8be0079c531659141344cd1fd0a4f28419497f9722a3daafe3b4186f6b6457e090600090a35050565b610adf82826040518060200160405280600081525061151e565b816001600160a01b0316836001600160a01b031614156112d45760405162461bcd60e51b815260206004820152601960248201527822a9219b99189d1030b8383937bb32903a379031b0b63632b960391b6044820152606401610592565b6001600160a01b03838116600081815260056020908152604080832094871680845294825291829020805460ff191686151590811790915591519182527f17307eab39ab6107e8899845ad3d59bd9653f200f220920489ca2b5937696c31910160405180910390a3505050565b61134c84848461106a565b61135884848484611551565b610b7b5760405162461bcd60e51b815260040161059290611cd8565b6060816113985750506040805180820190915260018152600360fc1b602082015290565b8160005b81156113c257806113ac81611c71565b91506113bb9050600a83611d40565b915061139c565b6000816001600160401b038111156113dc576113dc611894565b6040519080825280601f01601f191660200182016040528015611406576020820181803683370190505b5090505b8415610cf25761141b600183611bbc565b9150611428600a86611d54565b611433906030611c59565b60f81b81838151811061144857611448611d68565b60200101906001600160f81b031916908160001a90535061146a600a86611d40565b945061140a565b6000604051806080016040528060438152602001611dd960439139805160209182012083518483015160408087015180519086012090516114d1950193845260208401929092526001600160a01b03166040830152606082015260800190565b604051602081830303815290604052805190602001209050919050565b60006114f960075490565b60405161190160f01b60208201526022810191909152604281018390526062016114d1565b6115288383611656565b6115356000848484611551565b6106d55760405162461bcd60e51b815260040161059290611cd8565b60006001600160a01b0384163b1561164b57836001600160a01b031663150b7a0261157a610e2d565b8786866040518563ffffffff1660e01b815260040161159c9493929190611d7e565b6020604051808303816000875af19250505080156115d7575060408051601f3d908101601f191682019092526115d491810190611dbb565b60015b611631573d808015611605576040519150601f19603f3d011682016040523d82523d6000602084013e61160a565b606091505b5080516116295760405162461bcd60e51b815260040161059290611cd8565b805181602001fd5b6001600160e01b031916630a85bd0160e11b149050610cf2565b506001949350505050565b6001600160a01b0382166116ac5760405162461bcd60e51b815260206004820181905260248201527f4552433732313a206d696e7420746f20746865207a65726f20616464726573736044820152606401610592565b6116b581610e10565b156117015760405162461bcd60e51b815260206004820152601c60248201527b115490cdcc8c4e881d1bdad95b88185b1c9958591e481b5a5b9d195960221b6044820152606401610592565b6001600160a01b038216600090815260036020526040812080546001929061172a908490611c59565b909155505060008181526002602052604080822080546001600160a01b0319166001600160a01b03861690811790915590518392907fddf252ad1be2c89b69c2b068fc378daa952ba7f163c4a11628f55a4df523b3ef908290a45050565b6001600160e01b031981168114610da757600080fd5b6000602082840312156117b057600080fd5b8135610fa181611788565b60005b838110156117d65781810151838201526020016117be565b83811115610b7b5750506000910152565b600081518084526117ff8160208601602086016117bb565b601f01601f19169290920160200192915050565b602081526000610fa160208301846117e7565b60006020828403121561183857600080fd5b5035919050565b6001600160a01b0391909116815260200190565b6001600160a01b0381168114610da757600080fd5b6000806040838503121561187b57600080fd5b823561188681611853565b946020939093013593505050565b634e487b7160e01b600052604160045260246000fd5b600082601f8301126118bb57600080fd5b81356001600160401b03808211156118d5576118d5611894565b604051601f8301601f19908116603f011681019082821181831017156118fd576118fd611894565b8160405283815286602085880101111561191657600080fd5b836020870160208301376000602085830101528094505050505092915050565b600080600080600060a0868803121561194e57600080fd5b853561195981611853565b945060208601356001600160401b0381111561197457600080fd5b611980888289016118aa565b9450506040860135925060608601359150608086013560ff811681146119a557600080fd5b809150509295509295909350565b6000806000606084860312156119c857600080fd5b83356119d381611853565b925060208401356119e381611853565b929592945050506040919091013590565b600060208284031215611a0657600080fd5b8135610fa181611853565b60008060408385031215611a2457600080fd5b8235611a2f81611853565b915060208301358015158114611a4457600080fd5b809150509250929050565b60008060008060808587031215611a6557600080fd5b8435611a7081611853565b93506020850135611a8081611853565b92506040850135915060608501356001600160401b03811115611aa257600080fd5b611aae878288016118aa565b91505092959194509250565b60008060408385031215611acd57600080fd5b8235611ad881611853565b91506020830135611a4481611853565b600181811c90821680611afc57607f821691505b60208210811415611b1d57634e487b7160e01b600052602260045260246000fd5b50919050565b6001600160a01b03848116825283166020820152606060408201819052600090611b4f908301846117e7565b95945050505050565b60008351611b6a8184602088016117bb565b60609390931b6001600160601b0319169190920190815260140192915050565b60008251611b9c8184602087016117bb565b9190910192915050565b634e487b7160e01b600052601160045260246000fd5b600082821015611bce57611bce611ba6565b500390565b60208082526031908201527f4552433732313a207472616e736665722063616c6c6572206973206e6f74206f6040820152701ddb995c881b9bdc88185c1c1c9bdd9959607a1b606082015260800190565b6020808252818101527f4f776e61626c653a2063616c6c6572206973206e6f7420746865206f776e6572604082015260600190565b60008219821115611c6c57611c6c611ba6565b500190565b6000600019821415611c8557611c85611ba6565b5060010190565b60008351611c9e8184602088016117bb565b835190830190611cb28183602088016117bb565b01949350505050565b600060208284031215611ccd57600080fd5b8151610fa181611853565b60208082526032908201527f4552433732313a207472616e7366657220746f206e6f6e20455243373231526560408201527131b2b4bb32b91034b6b83632b6b2b73a32b960711b606082015260800190565b634e487b7160e01b600052601260045260246000fd5b600082611d4f57611d4f611d2a565b500490565b600082611d6357611d63611d2a565b500690565b634e487b7160e01b600052603260045260246000fd5b6001600160a01b0385811682528416602082015260408101839052608060608201819052600090611db1908301846117e7565b9695505050505050565b600060208284031215611dcd57600080fd5b8151610fa18161178856fe4d6574615472616e73616374696f6e2875696e74323536206e6f6e63652c616464726573732066726f6d2c62797465732066756e6374696f6e5369676e61747572652968747470733a2f2f676174657761792e70696e6174612e636c6f75642f697066732f516d517177364e554a475a7265726a6d43667153734e4e5077536b55434c4a33467275356e70354d4254627644542fa2646970667358221220bb9e3c14e7da0c521531e85184937e0a47801e7d9119cd361923e54fe059bec864736f6c634300080a0033454950373132446f6d61696e28737472696e67206e616d652c737472696e672076657273696f6e2c6164647265737320766572696679696e67436f6e74726163742c627974657333322073616c7429",
  "immutableReferences": {},
  "source": "// SPDX-License-Identifier: MIT\r\n\r\npragma solidity ^0.8.0;\r\n\r\nimport \"./ERC721Tradable.sol\";\r\n\r\n/**\r\n * @title Sloth Royalty Club\r\n * Sloth Royalty Club - a contract for my non-fungible Sloth Royalty Clubs.\r\n */\r\ncontract SlothRoyaltyClub is ERC721Tradable {\r\n    constructor(address _proxyRegistryAddress)\r\n        ERC721Tradable(\"SlothRoyaltyClub\", \"SRC\", _proxyRegistryAddress)\r\n    {}\r\n\r\n    function baseTokenURI() override public pure returns (string memory) {\r\n        return \"https://gateway.pinata.cloud/ipfs/QmQqw6NUJGZrerjmCfqSsNNPwSkUCLJ3Fru5np5MBTbvDT/\";\r\n    }\r\n}\r\n",
  "sourcePath": "D:/zidane_src/_freelancing/Jordan_NFT/opensea-creatures/contracts/SlothRoyaltyClub.sol",
  "compiler": {
    "name": "solc",
    "version": "0.8.10+commit.fc410830.Emscripten.clang"
  },
  "schemaVersion": "3.3.4",
  "updatedAt": "2021-12-13T03:34:48.127Z",
  "networkType": "ethereum",
  "devdoc": {
    "kind": "dev",
    "methods": {
      "approve(address,uint256)": {
        "details": "See {IERC721-approve}."
      },
      "balanceOf(address)": {
        "details": "See {IERC721-balanceOf}."
      },
      "getApproved(uint256)": {
        "details": "See {IERC721-getApproved}."
      },
      "mintTo(address)": {
        "details": "Mints a token to an address with a tokenURI.",
        "params": {
          "_to": "address of the future owner of the token"
        }
      },
      "name()": {
        "details": "See {IERC721Metadata-name}."
      },
      "owner()": {
        "details": "Returns the address of the current owner."
      },
      "ownerOf(uint256)": {
        "details": "See {IERC721-ownerOf}."
      },
      "renounceOwnership()": {
        "details": "Leaves the contract without owner. It will not be possible to call `onlyOwner` functions anymore. Can only be called by the current owner. NOTE: Renouncing ownership will leave the contract without an owner, thereby removing any functionality that is only available to the owner."
      },
      "safeTransferFrom(address,address,uint256)": {
        "details": "See {IERC721-safeTransferFrom}."
      },
      "safeTransferFrom(address,address,uint256,bytes)": {
        "details": "See {IERC721-safeTransferFrom}."
      },
      "setApprovalForAll(address,bool)": {
        "details": "See {IERC721-setApprovalForAll}."
      },
      "supportsInterface(bytes4)": {
        "details": "See {IERC165-supportsInterface}."
      },
      "symbol()": {
        "details": "See {IERC721Metadata-symbol}."
      },
      "totalSupply()": {
        "details": "Returns the total tokens minted so far. 1 is always subtracted from the Counter since it tracks the next available tokenId."
      },
      "transferFrom(address,address,uint256)": {
        "details": "See {IERC721-transferFrom}."
      },
      "transferOwnership(address)": {
        "details": "Transfers ownership of the contract to a new account (`newOwner`). Can only be called by the current owner."
      }
    },
    "title": "Sloth Royalty Club Sloth Royalty Club - a contract for my non-fungible Sloth Royalty Clubs.",
    "version": 1
  },
  "userdoc": {
    "kind": "user",
    "methods": {
      "isApprovedForAll(address,address)": {
        "notice": "Override isApprovedForAll to whitelist user's OpenSea proxy accounts to enable gas-less listings."
      }
    },
    "version": 1
  }
}