{
  "contractName": "SlothRoyaltyClub",
  "abi": [
    {
      "inputs": [
        {
          "internalType": "address",
          "name": "_proxyRegistryAddress",
          "type": "address"
        }
      ],
      "stateMutability": "nonpayable",
      "type": "constructor"
    },
    {
      "anonymous": false,
      "inputs": [
        {
          "indexed": true,
          "internalType": "address",
          "name": "owner",
          "type": "address"
        },
        {
          "indexed": true,
          "internalType": "address",
          "name": "approved",
          "type": "address"
        },
        {
          "indexed": true,
          "internalType": "uint256",
          "name": "tokenId",
          "type": "uint256"
        }
      ],
      "name": "Approval",
      "type": "event"
    },
    {
      "anonymous": false,
      "inputs": [
        {
          "indexed": true,
          "internalType": "address",
          "name": "owner",
          "type": "address"
        },
        {
          "indexed": true,
          "internalType": "address",
          "name": "operator",
          "type": "address"
        },
        {
          "indexed": false,
          "internalType": "bool",
          "name": "approved",
          "type": "bool"
        }
      ],
      "name": "ApprovalForAll",
      "type": "event"
    },
    {
      "anonymous": false,
      "inputs": [
        {
          "indexed": false,
          "internalType": "address",
          "name": "userAddress",
          "type": "address"
        },
        {
          "indexed": false,
          "internalType": "address payable",
          "name": "relayerAddress",
          "type": "address"
        },
        {
          "indexed": false,
          "internalType": "bytes",
          "name": "functionSignature",
          "type": "bytes"
        }
      ],
      "name": "MetaTransactionExecuted",
      "type": "event"
    },
    {
      "anonymous": false,
      "inputs": [
        {
          "indexed": true,
          "internalType": "address",
          "name": "previousOwner",
          "type": "address"
        },
        {
          "indexed": true,
          "internalType": "address",
          "name": "newOwner",
          "type": "address"
        }
      ],
      "name": "OwnershipTransferred",
      "type": "event"
    },
    {
      "anonymous": false,
      "inputs": [
        {
          "indexed": true,
          "internalType": "address",
          "name": "from",
          "type": "address"
        },
        {
          "indexed": true,
          "internalType": "address",
          "name": "to",
          "type": "address"
        },
        {
          "indexed": true,
          "internalType": "uint256",
          "name": "tokenId",
          "type": "uint256"
        }
      ],
      "name": "Transfer",
      "type": "event"
    },
    {
      "inputs": [],
      "name": "ERC712_VERSION",
      "outputs": [
        {
          "internalType": "string",
          "name": "",
          "type": "string"
        }
      ],
      "stateMutability": "view",
      "type": "function",
      "constant": true
    },
    {
      "inputs": [
        {
          "internalType": "uint256",
          "name": "",
          "type": "uint256"
        }
      ],
      "name": "_tokenURIs",
      "outputs": [
        {
          "internalType": "string",
          "name": "",
          "type": "string"
        }
      ],
      "stateMutability": "view",
      "type": "function",
      "constant": true
    },
    {
      "inputs": [
        {
          "internalType": "address",
          "name": "to",
          "type": "address"
        },
        {
          "internalType": "uint256",
          "name": "tokenId",
          "type": "uint256"
        }
      ],
      "name": "approve",
      "outputs": [],
      "stateMutability": "nonpayable",
      "type": "function"
    },
    {
      "inputs": [
        {
          "internalType": "address",
          "name": "owner",
          "type": "address"
        }
      ],
      "name": "balanceOf",
      "outputs": [
        {
          "internalType": "uint256",
          "name": "",
          "type": "uint256"
        }
      ],
      "stateMutability": "view",
      "type": "function",
      "constant": true
    },
    {
      "inputs": [
        {
          "internalType": "address",
          "name": "userAddress",
          "type": "address"
        },
        {
          "internalType": "bytes",
          "name": "functionSignature",
          "type": "bytes"
        },
        {
          "internalType": "bytes32",
          "name": "sigR",
          "type": "bytes32"
        },
        {
          "internalType": "bytes32",
          "name": "sigS",
          "type": "bytes32"
        },
        {
          "internalType": "uint8",
          "name": "sigV",
          "type": "uint8"
        }
      ],
      "name": "executeMetaTransaction",
      "outputs": [
        {
          "internalType": "bytes",
          "name": "",
          "type": "bytes"
        }
      ],
      "stateMutability": "payable",
      "type": "function",
      "payable": true
    },
    {
      "inputs": [
        {
          "internalType": "uint256",
          "name": "tokenId",
          "type": "uint256"
        }
      ],
      "name": "getApproved",
      "outputs": [
        {
          "internalType": "address",
          "name": "",
          "type": "address"
        }
      ],
      "stateMutability": "view",
      "type": "function",
      "constant": true
    },
    {
      "inputs": [],
      "name": "getChainId",
      "outputs": [
        {
          "internalType": "uint256",
          "name": "",
          "type": "uint256"
        }
      ],
      "stateMutability": "view",
      "type": "function",
      "constant": true
    },
    {
      "inputs": [],
      "name": "getDomainSeperator",
      "outputs": [
        {
          "internalType": "bytes32",
          "name": "",
          "type": "bytes32"
        }
      ],
      "stateMutability": "view",
      "type": "function",
      "constant": true
    },
    {
      "inputs": [
        {
          "internalType": "address",
          "name": "user",
          "type": "address"
        }
      ],
      "name": "getNonce",
      "outputs": [
        {
          "internalType": "uint256",
          "name": "nonce",
          "type": "uint256"
        }
      ],
      "stateMutability": "view",
      "type": "function",
      "constant": true
    },
    {
      "inputs": [
        {
          "internalType": "address",
          "name": "owner",
          "type": "address"
        },
        {
          "internalType": "address",
          "name": "operator",
          "type": "address"
        }
      ],
      "name": "isApprovedForAll",
      "outputs": [
        {
          "internalType": "bool",
          "name": "",
          "type": "bool"
        }
      ],
      "stateMutability": "view",
      "type": "function",
      "constant": true
    },
    {
      "inputs": [
        {
          "internalType": "address",
          "name": "_to",
          "type": "address"
        },
        {
          "internalType": "string",
          "name": "_tokenHash",
          "type": "string"
        }
      ],
      "name": "mintTo",
      "outputs": [],
      "stateMutability": "nonpayable",
      "type": "function"
    },
    {
      "inputs": [],
      "name": "name",
      "outputs": [
        {
          "internalType": "string",
          "name": "",
          "type": "string"
        }
      ],
      "stateMutability": "view",
      "type": "function",
      "constant": true
    },
    {
      "inputs": [],
      "name": "owner",
      "outputs": [
        {
          "internalType": "address",
          "name": "",
          "type": "address"
        }
      ],
      "stateMutability": "view",
      "type": "function",
      "constant": true
    },
    {
      "inputs": [
        {
          "internalType": "uint256",
          "name": "tokenId",
          "type": "uint256"
        }
      ],
      "name": "ownerOf",
      "outputs": [
        {
          "internalType": "address",
          "name": "",
          "type": "address"
        }
      ],
      "stateMutability": "view",
      "type": "function",
      "constant": true
    },
    {
      "inputs": [],
      "name": "renounceOwnership",
      "outputs": [],
      "stateMutability": "nonpayable",
      "type": "function"
    },
    {
      "inputs": [
        {
          "internalType": "address",
          "name": "from",
          "type": "address"
        },
        {
          "internalType": "address",
          "name": "to",
          "type": "address"
        },
        {
          "internalType": "uint256",
          "name": "tokenId",
          "type": "uint256"
        }
      ],
      "name": "safeTransferFrom",
      "outputs": [],
      "stateMutability": "nonpayable",
      "type": "function"
    },
    {
      "inputs": [
        {
          "internalType": "address",
          "name": "from",
          "type": "address"
        },
        {
          "internalType": "address",
          "name": "to",
          "type": "address"
        },
        {
          "internalType": "uint256",
          "name": "tokenId",
          "type": "uint256"
        },
        {
          "internalType": "bytes",
          "name": "_data",
          "type": "bytes"
        }
      ],
      "name": "safeTransferFrom",
      "outputs": [],
      "stateMutability": "nonpayable",
      "type": "function"
    },
    {
      "inputs": [
        {
          "internalType": "address",
          "name": "operator",
          "type": "address"
        },
        {
          "internalType": "bool",
          "name": "approved",
          "type": "bool"
        }
      ],
      "name": "setApprovalForAll",
      "outputs": [],
      "stateMutability": "nonpayable",
      "type": "function"
    },
    {
      "inputs": [
        {
          "internalType": "bytes4",
          "name": "interfaceId",
          "type": "bytes4"
        }
      ],
      "name": "supportsInterface",
      "outputs": [
        {
          "internalType": "bool",
          "name": "",
          "type": "bool"
        }
      ],
      "stateMutability": "view",
      "type": "function",
      "constant": true
    },
    {
      "inputs": [],
      "name": "symbol",
      "outputs": [
        {
          "internalType": "string",
          "name": "",
          "type": "string"
        }
      ],
      "stateMutability": "view",
      "type": "function",
      "constant": true
    },
    {
      "inputs": [
        {
          "internalType": "uint256",
          "name": "_tokenId",
          "type": "uint256"
        }
      ],
      "name": "tokenURI",
      "outputs": [
        {
          "internalType": "string",
          "name": "",
          "type": "string"
        }
      ],
      "stateMutability": "view",
      "type": "function",
      "constant": true
    },
    {
      "inputs": [],
      "name": "totalSupply",
      "outputs": [
        {
          "internalType": "uint256",
          "name": "",
          "type": "uint256"
        }
      ],
      "stateMutability": "view",
      "type": "function",
      "constant": true
    },
    {
      "inputs": [
        {
          "internalType": "address",
          "name": "from",
          "type": "address"
        },
        {
          "internalType": "address",
          "name": "to",
          "type": "address"
        },
        {
          "internalType": "uint256",
          "name": "tokenId",
          "type": "uint256"
        }
      ],
      "name": "transferFrom",
      "outputs": [],
      "stateMutability": "nonpayable",
      "type": "function"
    },
    {
      "inputs": [
        {
          "internalType": "address",
          "name": "newOwner",
          "type": "address"
        }
      ],
      "name": "transferOwnership",
      "outputs": [],
      "stateMutability": "nonpayable",
      "type": "function"
    },
    {
      "inputs": [],
      "name": "baseTokenURI",
      "outputs": [
        {
          "internalType": "string",
          "name": "",
          "type": "string"
        }
      ],
      "stateMutability": "pure",
      "type": "function",
      "constant": true
    }
  ],
  "bytecode": "0x60806040526006805460ff191690553480156200001b57600080fd5b5060405162002331380380620023318339810160408190526200003e916200039b565b6040518060400160405280601081526020016f29b637ba342937bcb0b63a3ca1b63ab160811b8152506040518060400160405280600381526020016253524360e81b81525082828281600090805190602001906200009e929190620002f5565b508051620000b4906001906020840190620002f5565b505050620000d1620000cb6200011960201b60201c565b62000135565b600c80546001600160a01b0319166001600160a01b03831617905562000104600b62000187602090811b62000de417901c565b6200010f8362000190565b505050506200040a565b600062000130620001f460201b62000ded1760201c565b905090565b600980546001600160a01b038381166001600160a01b0319831681179093556040519116919082907f8be0079c531659141344cd1fd0a4f28419497f9722a3daafe3b4186f6b6457e090600090a35050565b80546001019055565b60065460ff1615620001d95760405162461bcd60e51b815260206004820152600e60248201526d185b1c9958591e481a5b9a5d195960921b604482015260640160405180910390fd5b620001e48162000253565b506006805460ff19166001179055565b6000333014156200024d57600080368080601f0160208091040260200160405190810160405280939291908181526020018383808284376000920191909152505050503601516001600160a01b03169150620002509050565b50335b90565b6040518060800160405280604f8152602001620022e2604f9139805160209182012082519282019290922060408051808201825260018152603160f81b90840152805180840194909452838101919091527fc89efdaa54c0f20c7adf612882df0950f5a951637e0307cdcb4c672f298b8bc660608401523060808401524660a0808501919091528151808503909101815260c090930190528151910120600755565b8280546200030390620003cd565b90600052602060002090601f01602090048101928262000327576000855562000372565b82601f106200034257805160ff191683800117855562000372565b8280016001018555821562000372579182015b828111156200037257825182559160200191906001019062000355565b506200038092915062000384565b5090565b5b8082111562000380576000815560010162000385565b600060208284031215620003ae57600080fd5b81516001600160a01b0381168114620003c657600080fd5b9392505050565b600181811c90821680620003e257607f821691505b602082108114156200040457634e487b7160e01b600052602260045260246000fd5b50919050565b611ec8806200041a6000396000f3fe6080604052600436106101255760003560e01c806275a3171461012a57806301ffc9a71461014c57806306fdde0314610181578063081812fc146101a3578063095ea7b3146101d05780630bb78ec1146101f05780630c53c51c146102105780630f7e59701461022357806318160ddd1461025057806320379ee51461027357806323b872dd146102885780632d0335ab146102a85780633408e470146102de57806342842e0e146102f15780636352211e1461031157806370a0823114610331578063715018a6146103515780638da5cb5b1461036657806395d89b411461037b578063a22cb46514610390578063b88d4fde146103b0578063c87b56dd146103d0578063d547cfb7146103f0578063e985e9c514610405578063f2fde38b14610425575b600080fd5b34801561013657600080fd5b5061014a6101453660046117fe565b610445565b005b34801561015857600080fd5b5061016c610167366004611877565b6104d7565b60405190151581526020015b60405180910390f35b34801561018d57600080fd5b50610196610529565b60405161017891906118ec565b3480156101af57600080fd5b506101c36101be3660046118ff565b6105bb565b6040516101789190611918565b3480156101dc57600080fd5b5061014a6101eb36600461192c565b610643565b3480156101fc57600080fd5b5061019661020b3660046118ff565b610761565b61019661021e366004611978565b6107fb565b34801561022f57600080fd5b50610196604051806040016040528060018152602001603160f81b81525081565b34801561025c57600080fd5b506102656109e4565b604051908152602001610178565b34801561027f57600080fd5b50600754610265565b34801561029457600080fd5b5061014a6102a33660046119f5565b610a00565b3480156102b457600080fd5b506102656102c3366004611a36565b6001600160a01b031660009081526008602052604090205490565b3480156102ea57600080fd5b5046610265565b3480156102fd57600080fd5b5061014a61030c3660046119f5565b610a38565b34801561031d57600080fd5b506101c361032c3660046118ff565b610a53565b34801561033d57600080fd5b5061026561034c366004611a36565b610aca565b34801561035d57600080fd5b5061014a610b51565b34801561037257600080fd5b506101c3610b9c565b34801561038757600080fd5b50610196610bab565b34801561039c57600080fd5b5061014a6103ab366004611a53565b610bba565b3480156103bc57600080fd5b5061014a6103cb366004611a91565b610bd0565b3480156103dc57600080fd5b506101966103eb3660046118ff565b610c0f565b3480156103fc57600080fd5b50610196610c4f565b34801561041157600080fd5b5061016c610420366004611afc565b610c6f565b34801561043157600080fd5b5061014a610440366004611a36565b610d34565b61044d610e4a565b6001600160a01b031661045e610b9c565b6001600160a01b03161461048d5760405162461bcd60e51b815260040161048490611b2a565b60405180910390fd5b6000610498600b5490565b90506104a8600b80546001019055565b6000818152600a6020908152604090912083516104c7928501906116c5565b506104d28382610e54565b505050565b60006001600160e01b031982166380ac58cd60e01b148061050857506001600160e01b03198216635b5e139f60e01b145b8061052357506301ffc9a760e01b6001600160e01b03198316145b92915050565b60606000805461053890611b5f565b80601f016020809104026020016040519081016040528092919081815260200182805461056490611b5f565b80156105b15780601f10610586576101008083540402835291602001916105b1565b820191906000526020600020905b81548152906001019060200180831161059457829003601f168201915b5050505050905090565b60006105c682610e6e565b6106275760405162461bcd60e51b815260206004820152602c60248201527f4552433732313a20617070726f76656420717565727920666f72206e6f6e657860448201526b34b9ba32b73a103a37b5b2b760a11b6064820152608401610484565b506000908152600460205260409020546001600160a01b031690565b600061064e82610a53565b9050806001600160a01b0316836001600160a01b031614156106bc5760405162461bcd60e51b815260206004820152602160248201527f4552433732313a20617070726f76616c20746f2063757272656e74206f776e656044820152603960f91b6064820152608401610484565b806001600160a01b03166106ce610e4a565b6001600160a01b031614806106ea57506106ea81610420610e4a565b6107575760405162461bcd60e51b815260206004820152603860248201527f4552433732313a20617070726f76652063616c6c6572206973206e6f74206f776044820152771b995c881b9bdc88185c1c1c9bdd995908199bdc88185b1b60421b6064820152608401610484565b6104d28383610e8b565b600a602052600090815260409020805461077a90611b5f565b80601f01602080910402602001604051908101604052809291908181526020018280546107a690611b5f565b80156107f35780601f106107c8576101008083540402835291602001916107f3565b820191906000526020600020905b8154815290600101906020018083116107d657829003601f168201915b505050505081565b60408051606081810183526001600160a01b038816600081815260086020908152908590205484528301529181018690526108398782878787610ef9565b61088f5760405162461bcd60e51b815260206004820152602160248201527f5369676e657220616e64207369676e617475726520646f206e6f74206d6174636044820152600d60fb1b6064820152608401610484565b6001600160a01b0387166000908152600860205260409020546108b3906001610fe9565b6001600160a01b0388166000908152600860205260409081902091909155517f5845892132946850460bff5a0083f71031bc5bf9aadcd40f1de79423eac9b10b9061090390899033908a90611b9a565b60405180910390a1600080306001600160a01b0316888a60405160200161092b929190611bcf565b60408051601f198184030181529082905261094591611c01565b6000604051808303816000865af19150503d8060008114610982576040519150601f19603f3d011682016040523d82523d6000602084013e610987565b606091505b5091509150816109d85760405162461bcd60e51b815260206004820152601c60248201527b119d5b98dd1a5bdb8818d85b1b081b9bdd081cdd58d8d95cdcd99d5b60221b6044820152606401610484565b98975050505050505050565b600060016109f1600b5490565b6109fb9190611c33565b905090565b610a11610a0b610e4a565b82610ffc565b610a2d5760405162461bcd60e51b815260040161048490611c4a565b6104d28383836110be565b6104d283838360405180602001604052806000815250610bd0565b6000818152600260205260408120546001600160a01b0316806105235760405162461bcd60e51b815260206004820152602960248201527f4552433732313a206f776e657220717565727920666f72206e6f6e657869737460448201526832b73a103a37b5b2b760b91b6064820152608401610484565b60006001600160a01b038216610b355760405162461bcd60e51b815260206004820152602a60248201527f4552433732313a2062616c616e636520717565727920666f7220746865207a65604482015269726f206164647265737360b01b6064820152608401610484565b506001600160a01b031660009081526003602052604090205490565b610b59610e4a565b6001600160a01b0316610b6a610b9c565b6001600160a01b031614610b905760405162461bcd60e51b815260040161048490611b2a565b610b9a600061125e565b565b6009546001600160a01b031690565b60606001805461053890611b5f565b610bcc610bc5610e4a565b83836112b0565b5050565b610be1610bdb610e4a565b83610ffc565b610bfd5760405162461bcd60e51b815260040161048490611c4a565b610c098484848461137b565b50505050565b6060610c19610c4f565b6000838152600a60209081526040918290209151610c3993929101611c9b565b6040516020818303038152906040529050919050565b6060604051806060016040528060228152602001611e7160229139905090565b600c5460405163c455279160e01b81526000916001600160a01b039081169190841690829063c455279190610ca8908890600401611918565b602060405180830381865afa158015610cc5573d6000803e3d6000fd5b505050506040513d601f19601f82011682018060405250810190610ce99190611d4c565b6001600160a01b03161415610d02576001915050610523565b6001600160a01b0380851660009081526005602090815260408083209387168352929052205460ff165b949350505050565b610d3c610e4a565b6001600160a01b0316610d4d610b9c565b6001600160a01b031614610d735760405162461bcd60e51b815260040161048490611b2a565b6001600160a01b038116610dd85760405162461bcd60e51b815260206004820152602660248201527f4f776e61626c653a206e6577206f776e657220697320746865207a65726f206160448201526564647265737360d01b6064820152608401610484565b610de18161125e565b50565b80546001019055565b600033301415610e4457600080368080601f0160208091040260200160405190810160405280939291908181526020018383808284376000920191909152505050503601516001600160a01b03169150610e479050565b50335b90565b60006109fb610ded565b610bcc8282604051806020016040528060008152506113ae565b6000908152600260205260409020546001600160a01b0316151590565b600081815260046020526040902080546001600160a01b0319166001600160a01b0384169081179091558190610ec082610a53565b6001600160a01b03167f8c5be1e5ebec7d5bd14f71427d1e84f3dd0314c0f7b2291e5b200ac8c7c3b92560405160405180910390a45050565b60006001600160a01b038616610f5f5760405162461bcd60e51b815260206004820152602560248201527f4e61746976654d6574615472616e73616374696f6e3a20494e56414c49445f5360448201526424a3a722a960d91b6064820152608401610484565b6001610f72610f6d876113e1565b61145e565b6040805160008152602081018083529290925260ff851690820152606081018690526080810185905260a0016020604051602081039080840390855afa158015610fc0573d6000803e3d6000fd5b505050602060405103516001600160a01b0316866001600160a01b031614905095945050505050565b6000610ff58284611d69565b9392505050565b600061100782610e6e565b6110685760405162461bcd60e51b815260206004820152602c60248201527f4552433732313a206f70657261746f7220717565727920666f72206e6f6e657860448201526b34b9ba32b73a103a37b5b2b760a11b6064820152608401610484565b600061107383610a53565b9050806001600160a01b0316846001600160a01b031614806110ae5750836001600160a01b03166110a3846105bb565b6001600160a01b0316145b80610d2c5750610d2c8185610c6f565b826001600160a01b03166110d182610a53565b6001600160a01b0316146111395760405162461bcd60e51b815260206004820152602960248201527f4552433732313a207472616e73666572206f6620746f6b656e2074686174206960448201526839903737ba1037bbb760b91b6064820152608401610484565b6001600160a01b03821661119b5760405162461bcd60e51b8152602060048201526024808201527f4552433732313a207472616e7366657220746f20746865207a65726f206164646044820152637265737360e01b6064820152608401610484565b6111a6600082610e8b565b6001600160a01b03831660009081526003602052604081208054600192906111cf908490611c33565b90915550506001600160a01b03821660009081526003602052604081208054600192906111fd908490611d69565b909155505060008181526002602052604080822080546001600160a01b0319166001600160a01b0386811691821790925591518493918716917fddf252ad1be2c89b69c2b068fc378daa952ba7f163c4a11628f55a4df523b3ef91a4505050565b600980546001600160a01b038381166001600160a01b0319831681179093556040519116919082907f8be0079c531659141344cd1fd0a4f28419497f9722a3daafe3b4186f6b6457e090600090a35050565b816001600160a01b0316836001600160a01b0316141561130e5760405162461bcd60e51b815260206004820152601960248201527822a9219b99189d1030b8383937bb32903a379031b0b63632b960391b6044820152606401610484565b6001600160a01b03838116600081815260056020908152604080832094871680845294825291829020805460ff191686151590811790915591519182527f17307eab39ab6107e8899845ad3d59bd9653f200f220920489ca2b5937696c31910160405180910390a3505050565b6113868484846110be565b6113928484848461148e565b610c095760405162461bcd60e51b815260040161048490611d81565b6113b88383611593565b6113c5600084848461148e565b6104d25760405162461bcd60e51b815260040161048490611d81565b6000604051806080016040528060438152602001611e2e6043913980516020918201208351848301516040808701518051908601209051611441950193845260208401929092526001600160a01b03166040830152606082015260800190565b604051602081830303815290604052805190602001209050919050565b600061146960075490565b60405161190160f01b6020820152602281019190915260428101839052606201611441565b60006001600160a01b0384163b1561158857836001600160a01b031663150b7a026114b7610e4a565b8786866040518563ffffffff1660e01b81526004016114d99493929190611dd3565b6020604051808303816000875af1925050508015611514575060408051601f3d908101601f1916820190925261151191810190611e10565b60015b61156e573d808015611542576040519150601f19603f3d011682016040523d82523d6000602084013e611547565b606091505b5080516115665760405162461bcd60e51b815260040161048490611d81565b805181602001fd5b6001600160e01b031916630a85bd0160e11b149050610d2c565b506001949350505050565b6001600160a01b0382166115e95760405162461bcd60e51b815260206004820181905260248201527f4552433732313a206d696e7420746f20746865207a65726f20616464726573736044820152606401610484565b6115f281610e6e565b1561163e5760405162461bcd60e51b815260206004820152601c60248201527b115490cdcc8c4e881d1bdad95b88185b1c9958591e481b5a5b9d195960221b6044820152606401610484565b6001600160a01b0382166000908152600360205260408120805460019290611667908490611d69565b909155505060008181526002602052604080822080546001600160a01b0319166001600160a01b03861690811790915590518392907fddf252ad1be2c89b69c2b068fc378daa952ba7f163c4a11628f55a4df523b3ef908290a45050565b8280546116d190611b5f565b90600052602060002090601f0160209004810192826116f35760008555611739565b82601f1061170c57805160ff1916838001178555611739565b82800160010185558215611739579182015b8281111561173957825182559160200191906001019061171e565b50611745929150611749565b5090565b5b80821115611745576000815560010161174a565b6001600160a01b0381168114610de157600080fd5b634e487b7160e01b600052604160045260246000fd5b60006001600160401b03808411156117a3576117a3611773565b604051601f8501601f19908116603f011681019082821181831017156117cb576117cb611773565b816040528093508581528686860111156117e457600080fd5b858560208301376000602087830101525050509392505050565b6000806040838503121561181157600080fd5b823561181c8161175e565b915060208301356001600160401b0381111561183757600080fd5b8301601f8101851361184857600080fd5b61185785823560208401611789565b9150509250929050565b6001600160e01b031981168114610de157600080fd5b60006020828403121561188957600080fd5b8135610ff581611861565b60005b838110156118af578181015183820152602001611897565b83811115610c095750506000910152565b600081518084526118d8816020860160208601611894565b601f01601f19169290920160200192915050565b602081526000610ff560208301846118c0565b60006020828403121561191157600080fd5b5035919050565b6001600160a01b0391909116815260200190565b6000806040838503121561193f57600080fd5b823561194a8161175e565b946020939093013593505050565b600082601f83011261196957600080fd5b610ff583833560208501611789565b600080600080600060a0868803121561199057600080fd5b853561199b8161175e565b945060208601356001600160401b038111156119b657600080fd5b6119c288828901611958565b9450506040860135925060608601359150608086013560ff811681146119e757600080fd5b809150509295509295909350565b600080600060608486031215611a0a57600080fd5b8335611a158161175e565b92506020840135611a258161175e565b929592945050506040919091013590565b600060208284031215611a4857600080fd5b8135610ff58161175e565b60008060408385031215611a6657600080fd5b8235611a718161175e565b915060208301358015158114611a8657600080fd5b809150509250929050565b60008060008060808587031215611aa757600080fd5b8435611ab28161175e565b93506020850135611ac28161175e565b92506040850135915060608501356001600160401b03811115611ae457600080fd5b611af087828801611958565b91505092959194509250565b60008060408385031215611b0f57600080fd5b8235611b1a8161175e565b91506020830135611a868161175e565b6020808252818101527f4f776e61626c653a2063616c6c6572206973206e6f7420746865206f776e6572604082015260600190565b600181811c90821680611b7357607f821691505b60208210811415611b9457634e487b7160e01b600052602260045260246000fd5b50919050565b6001600160a01b03848116825283166020820152606060408201819052600090611bc6908301846118c0565b95945050505050565b60008351611be1818460208801611894565b60609390931b6001600160601b0319169190920190815260140192915050565b60008251611c13818460208701611894565b9190910192915050565b634e487b7160e01b600052601160045260246000fd5b600082821015611c4557611c45611c1d565b500390565b60208082526031908201527f4552433732313a207472616e736665722063616c6c6572206973206e6f74206f6040820152701ddb995c881b9bdc88185c1c1c9bdd9959607a1b606082015260800190565b600083516020611cae8285838901611894565b845491840191600090600181811c9080831680611ccc57607f831692505b858310811415611cea57634e487b7160e01b85526022600452602485fd5b808015611cfe5760018114611d0f57611d3c565b60ff19851688528388019550611d3c565b60008b81526020902060005b85811015611d345781548a820152908401908801611d1b565b505083880195505b50939a9950505050505050505050565b600060208284031215611d5e57600080fd5b8151610ff58161175e565b60008219821115611d7c57611d7c611c1d565b500190565b60208082526032908201527f4552433732313a207472616e7366657220746f206e6f6e20455243373231526560408201527131b2b4bb32b91034b6b83632b6b2b73a32b960711b606082015260800190565b6001600160a01b0385811682528416602082015260408101839052608060608201819052600090611e06908301846118c0565b9695505050505050565b600060208284031215611e2257600080fd5b8151610ff58161186156fe4d6574615472616e73616374696f6e2875696e74323536206e6f6e63652c616464726573732066726f6d2c62797465732066756e6374696f6e5369676e61747572652968747470733a2f2f676174657761792e70696e6174612e636c6f75642f697066732fa26469706673582212207769769feac7607a9438adae2883dbd5ef2575f5dbcb3e4b4bfd423e198069cf64736f6c634300080a0033454950373132446f6d61696e28737472696e67206e616d652c737472696e672076657273696f6e2c6164647265737320766572696679696e67436f6e74726163742c627974657333322073616c7429",
  "immutableReferences": {},
  "source": "// SPDX-License-Identifier: MIT\r\n\r\npragma solidity ^0.8.0;\r\n\r\nimport \"./ERC721Tradable.sol\";\r\n\r\n/**\r\n * @title Sloth Royalty Club\r\n * Sloth Royalty Club - a contract for my non-fungible Sloth Royalty Clubs.\r\n */\r\ncontract SlothRoyaltyClub is ERC721Tradable {\r\n    constructor(address _proxyRegistryAddress)\r\n        ERC721Tradable(\"SlothRoyaltyClub\", \"SRC\", _proxyRegistryAddress)\r\n    {}\r\n\r\n    function baseTokenURI() override public pure returns (string memory) {\r\n        return \"https://gateway.pinata.cloud/ipfs/\";\r\n    }\r\n}\r\n",
  "sourcePath": "D:/zidane_src/_freelancing/Jordan_NFT/opensea-creatures/contracts/SlothRoyaltyClub.sol",
  "compiler": {
    "name": "solc",
    "version": "0.8.10+commit.fc410830.Emscripten.clang"
  },
  "schemaVersion": "3.3.4",
  "updatedAt": "2021-12-08T16:06:39.599Z",
  "networkType": "ethereum",
  "devdoc": {
    "kind": "dev",
    "methods": {
      "approve(address,uint256)": {
        "details": "See {IERC721-approve}."
      },
      "balanceOf(address)": {
        "details": "See {IERC721-balanceOf}."
      },
      "getApproved(uint256)": {
        "details": "See {IERC721-getApproved}."
      },
      "mintTo(address,string)": {
        "details": "Mints a token to an address with a tokenURI.",
        "params": {
          "_to": "address of the future owner of the token"
        }
      },
      "name()": {
        "details": "See {IERC721Metadata-name}."
      },
      "owner()": {
        "details": "Returns the address of the current owner."
      },
      "ownerOf(uint256)": {
        "details": "See {IERC721-ownerOf}."
      },
      "renounceOwnership()": {
        "details": "Leaves the contract without owner. It will not be possible to call `onlyOwner` functions anymore. Can only be called by the current owner. NOTE: Renouncing ownership will leave the contract without an owner, thereby removing any functionality that is only available to the owner."
      },
      "safeTransferFrom(address,address,uint256)": {
        "details": "See {IERC721-safeTransferFrom}."
      },
      "safeTransferFrom(address,address,uint256,bytes)": {
        "details": "See {IERC721-safeTransferFrom}."
      },
      "setApprovalForAll(address,bool)": {
        "details": "See {IERC721-setApprovalForAll}."
      },
      "supportsInterface(bytes4)": {
        "details": "See {IERC165-supportsInterface}."
      },
      "symbol()": {
        "details": "See {IERC721Metadata-symbol}."
      },
      "totalSupply()": {
        "details": "Returns the total tokens minted so far. 1 is always subtracted from the Counter since it tracks the next available tokenId."
      },
      "transferFrom(address,address,uint256)": {
        "details": "See {IERC721-transferFrom}."
      },
      "transferOwnership(address)": {
        "details": "Transfers ownership of the contract to a new account (`newOwner`). Can only be called by the current owner."
      }
    },
    "title": "Sloth Royalty Club Sloth Royalty Club - a contract for my non-fungible Sloth Royalty Clubs.",
    "version": 1
  },
  "userdoc": {
    "kind": "user",
    "methods": {
      "isApprovedForAll(address,address)": {
        "notice": "Override isApprovedForAll to whitelist user's OpenSea proxy accounts to enable gas-less listings."
      }
    },
    "version": 1
  }
}